:02000002D0002C
:1040000000400D0044530D00000006000C000501A7
:084010000401BD0B00000000DB
:04401800FC500D004B
:10401C0009480A49884208B505D0094A824202D0AB
:10402C00121A01F023F80748074A0021121A01F06E
:10403C002BF8014808BD00BFCCE50320B4520D009D
:10404C0034E6032034E60320F0E7032070B5074E76
:10405C00074C00F067FCA41BA4080025A54200D166
:10406C0070BD56F8043B98470135F7E784520D00B4
:10407C00A8520D0000F01BB808B500F027F8BDE8F9
:10408C00084000F011BC00F0CFBA00F0D5BA0078AF
:10409C00B0FA80F04009704701230370704710B5E7
:1040AC000446006808B100F0C7FA204610BD08B5F8
:1040BC000121072000F04AFF0121062000F046FFF5
:1040CC00BDE808400121052000F040BF08B5802163
:1040DC00052000F04CFF0021062000F048FF0021D5
:1040EC00072000F044FF4FF4FA7000F0A3FB00210E
:1040FC00052000F03CFF0021062000F038FF0021D5
:10410C00072000F034FF4FF4FA7000F093FB00210D
:10411C00052000F02CFF8021062000F028FF002154
:10412C00072000F024FF4FF4FA7000F083FB00210D
:10413C00052000F01CFF0021062000F018FF0021D4
:10414C00072000F014FF4FF4FA7000F073FB00210D
:10415C00052000F00CFF0021062000F008FF802154
:10416C00072000F004FF4FF4FA7000F063FB00210D
:10417C00052000F0FCFE0021062000F0F8FE0021D6
:10418C00072000F0F4FE4FF4FA7000F053FBFF210F
:10419C00052000F0ECFE4021062000F0E8FE002196
:1041AC00072000F0E4FE4FF4FA7000F043FB00210E
:1041BC00052000F0DCFE0021062000F0D8FE0021D6
:1041CC00072000F0D4FE4FF4FA7000F033FBFF210F
:1041DC00052000F0CCFE8021062000F0C8FE002156
:1041EC00072000F0C4FE4FF4FA7000F023FB00210E
:1041FC00052000F0BCFE0021062000F0B8FE0021D6
:10420C00072000F0B4FE4FF4FA7000F013FB7F218E
:10421C00052000F0ACFE0021062000F0A8FE7F2156
:10422C00072000F0A4FE4FF4FA7000F003FB00210D
:10423C00052000F09CFE0021062000F098FE0021D5
:10424C00072000F094FE4FF4FA7000F0F3FA072107
:10425C00052000F08CFE7D21062000F088FE7321E5
:10426C00072000F084FE4FF4FA7000F0E3FA00210E
:10427C00052000F07CFE0021062000F078FE0720CF
:10428C00002100F074FEBDE808404FF4FA7000F015
:10429C00D1BA000038B50A4C0A4BA36000250320A4
:1042AC002560A580A57100F02BF90749074A204627
:1042BC0000F0C4FE29460120BDE8384000F030B9BA
:1042CC0038E603200000FFFFAB400D0034E603206E
:1042DC0008B5024B1B689B68019308BD680203007C
:1042EC0008B5024B1B68DB68019308BD680203002C
:1042FC0008B5024B1B685B68019308BD2C020300D8
:10430C0008B5024B1B689B68019308BD2C02030087
:10431C0008B5024B1B68DB68019308BD2C02030037
:10432C0008B5024B1B689B6A019308BD2C02030065
:10433C0008B5024B1B689B6F019308BD2C02030050
:10434C0008B5024B1B685B68019308BD180203009B
:10435C0008B5024B1B685B69019308BD180203008A
:10436C0008B5024B1B685B6C019308BD4802030047
:10437C0008B5024B1B689B6C019308BD48020300F7
:10438C0008B5024B1B685B69019308BD640203000E
:10439C0008B5024B1B681B68019308BD3C02030067
:1043AC0008B5024B1B68DB68019308BD3C02030097
:1043BC0008B5024B1B681B69019308BD3C02030046
:1043CC0008B5024B1B685B69019308BD3C020300F6
:1043DC0008B5024B1B689B69019308BD3C020300A6
:1043EC0008B5024B1B68DB69019308BD3C02030056
:1043FC0008B5024B1B681B6A019308BD3C02030005
:10440C0008B5024B1B689B6A019308BD3C02030074
:10441C0008B5024B1B681B6A019308BD28020300F8
:10442C0008B5024B1B685B6A019308BD28020300A8
:10443C0008B5024B1B689B6A019308BD2802030058
:10444C0008B5024B1B68DB6A019308BD2802030008
:10445C0008B5024B1B681B6B019308BD28020300B7
:10446C0008B5024B1B685B6B019308BD2802030067
:10447C0008B5024B1B681B6C019308BD2802030096
:10448C0008B5024B1B68DB69019308BD30020300C1
:10449C0008B5024B1B681B6A019308BD3002030070
:1044AC0008B5024B1B681B68019308BD4C02030046
:1044BC0008B5024B1B681B69019308BD4C02030035
:1044CC0008B5024B1B685B69019308BD4C020300E5
:1044DC0008B5024B1B689B69019308BD4C02030095
:1044EC0008B5024B1B68DB69019308BD4C02030045
:1044FC0008B5024B1B681B6A019308BD4C020300F4
:10450C0008B5024B1B685B68019308BD20020300D1
:10451C0008B5024B1B685B69019308BD20020300C0
:10452C0008B5024B1B68DB6A019308BD200203002F
:10453C0008B5034B1B68D3F88830019308BD000005
:10454C002002030008B5034B1B68D3F89430019389
:10455C0008BD00002002030008B5024B1B685B6815
:10456C00019308BD4002030008B5024B1B689B6811
:10457C00019308BD4002030008B5024B1B68DB68C1
:10458C00019308BD4002030008B5024B1B681B6970
:10459C00019308BD4002030008B5024B1B685B6920
:1045AC00019308BD4002030008B5024B1B689B69D0
:1045BC00019308BD4002030008B5024B1B68DB6980
:1045CC00019308BD4002030008B5024B1B681B6A2F
:1045DC00019308BD4002030008B5024B1B681B6B1E
:1045EC00019308BD4002030008B5024B1B685B6BCE
:1045FC00019308BD4002030008B5024B1B681B6CFD
:10460C00019308BD4002030008B5024B1B685B6CAC
:10461C00019308BD4002030008B5024B1B68DB6B1D
:10462C00019308BD4402030008B5024B1B681B68CC
:10463C00019308BD1C02030008B5024B1B685B68A4
:10464C00019308BD1C02030008B5024B1B685B6C90
:10465C00019308BD1C020300002240681146FFF7BD
:10466C00B3BF002240681146FFF7BEBF406800226E
:10467C00FFF7B2BF4068002281F00101FFF79CBF39
:10468C00002340681A461946FFF78EBF0023406886
:10469C001A461946FFF780BF002240681146FFF703
:1046AC0073BF002240681146FFF75EBF40680022CE
:1046BC000221FFF761BF002340681A46FFF74CBF89
:1046CC00024B03225A60024A1A60704744E60320E8
:1046DC0018510D0010B5044608462170FFF7D0FEA6
:1046EC0000236360204610BD10B5094B094C022213
:1046FC0000201A60084B2060A080A071A360FFF717
:10470C00FFFE2046054A0649BDE8104000F096BC65
:10471C0058E603204CE603200000FFFF34E603209C
:10472C00AB400D0010B50446006808B1FFF720FE41
:10473C00204610BD10B58368044613B10322014610
:10474C009847204610BD000010B5064C00232046AB
:10475C002360FFF705FE2046034A0449BDE81040DC
:10476C0000F06CBC5CE6032034E6032031470D00FE
:10477C00F8B506460D468F180024BD420CD03368A0
:10478C0015F8011B9B6830469847031E01DB1C443F
:10479C00F3E7002C08BF1C462046F8BD13B50446B1
:1047AC00084659B1019100F09BFC23680199DB6824
:1047BC000246204602B0BDE81040184702B010BDBA
:1047CC0003689B68184730B58BB000238DF82430F4
:1047DC00012A98BF0A2209AC0D46B1FBF2F101FB8C
:1047EC00125303F0FF03092B94BF30333733DBB282
:1047FC00AA4204F8013DEFD92146FFF7CFFF0BB0D9
:10480C0030BD002340681A461946FFF7C5BE0000AC
:10481C00014B024A1A60704760E603204C510D00B0
:10482C00024B1A68024B1A60704700BFCCE503209C
:10483C0064E603200021FFF76BBE10B50446FFF7BA
:10484C0079FF204610BD00000348044A04490023A8
:10485C00836000F0F3BB00BF68E6032034E603205E
:10486C0047480D00014B1860704700BFD0E503208E
:10487C0008B50B4B43B100F057F903681B69984717
:10488C00002801DDAFF30080064B43B100F0CAF9FC
:10489C0003681B699847002801DDAFF3008008BD51
:1048AC00000000000000000008B5FFF7E1FFFFF773
:1048BC004FFD014B186008BDD4E703200248034AA2
:1048CC000349121A00F0D2BB00F4032004F40320B5
:1048DC00B0520D0007B5002300931A466FF0770114
:1048EC00FFF730FE03B05DF804FB000007B543880A
:1048FC000A2B08D0502B0BD1094B1B684BB103B0C2
:10490C005DF804EB1847FFF7E5FF03B05DF804FB17
:10491C00002300931A466FF07701FFF713FEF4E7BC
:10492C007CE6032038B5124C1248134D0021FFF7DA
:10493C008BFE2368AB42114B0CBF012200221A7074
:10494C0002D0FFF7BBFF2560FFF7FAFC044600F02E
:10495C00A3FB0B4B13B12046AFF30080002108489A
:10496C00FFF75AFEBDE8384006480021FFF7E0BDCE
:10497C0000F4032071480D001E1C279A78E60320D2
:10498C0000000000F9480D00704710B518210446CE
:10499C0000F059FB204610BDF0B5037D062B8DB001
:1049AC000E4600F104074FF0000412D000F1080588
:1049BC0015F8011D0A223046FFF705FFAF420444EB
:1049CC0019D0002CF4D02E213046FFF7F9FE044408
:1049DC00EEE72F236A4639460A208DF80040FFF790
:1049EC00CFFC684600F07CFB33680246DB68694606
:1049FC0030469847044620460DB0F0BD10B5054B27
:104A0C000446112240F8043B002100F03DFB2046F7
:104A1C0010BD00BF74510D000346074A10B543F892
:104A2C00042B01F1100251F8044B43F8044B914252
:104A3C00F9D10A781A7010BD74510D0010B59DF89B
:104A4C00084044EA032343EA024242EA0161042398
:104A5C004160037510BD000013B5054B0360CB78A6
:104A6C0000938B784A780978FFF7E8FF02B010BD05
:104A7C0074510D0041747047704708B50021007CDB
:104A8C00FFF726FD40EAE07008BD08B50121007C67
:104A9C00FFF71EFD40EAE07008BD08B5007CFFF78B
:104AAC000FFD20EAE07008BD08B5007CFFF700FDA3
:104ABC0020EAE07008BD13B50446007C0191FFF7B5
:104ACC00FFFC0028019901DC607C20B1207CFFF701
:104ADC0007FD20EAE07002B010BD007CFFF708BDB6
:104AEC0010B51421044600F0AEFA204610BD0000AB
:104AFC0010B54FF47A73044608460021C4E901133B
:104B0C00044B23600123207463741146FFF7C8FC27
:104B1C00204610BD88510D0010B51422044600210A
:104B2C0000F0B2FA204610BD10B5104C88B003A8A6
:104B3C00FFF7F2FF2178BFF35B8F11F0010111D168
:104B4C0020460191FFF7A3FA019958B103AA08482E
:104B5C00FFF7CEFF2046FFF79FFA064A06490448A6
:104B6C0000F06CFA024808B010BD00BF80E60320CC
:104B7C0084E6032034E60320854A0D007047417417
:104B8C00704708B5007CFFF73BFC20EAE07008BDDD
:104B9C0008B5007CFFF70CFC20EAE07008BD08B5F6
:104BAC00007CFFF715FC40EAE07008BD08B5007CFE
:104BBC00FFF706FC40EAE07008BD007CFFF710BC74
:104BCC0037B5457C04462DB1207C03B0BDE83040A0
:104BDC00FFF7E6BB007C0191FFF712FC002801995E
:104BEC00F2DC284603B030BD10B51421044600F0A9
:104BFC002AFA204610BD000010B54FF0000C0446F8
:104C0C00084611464FF47A72C4E901C2044A226084
:104C1C000122207462741A46FFF7BAFB204610BDBD
:104C2C00B8510D0013B50E4C2178BFF35B8F11F00A
:104C3C00010112D120460191FFF729FA019960B1C7
:104C4C00084A094B0948FFF7D7FF2046FFF724FA1B
:104C5C00074A0849054800F0F1F9044802B010BDB4
:104C6C0098E603209CE6032020E70320A4E703201A
:104C7C0034E60320894B0D007047F8B506461546FF
:104C8C000C468F18BC4206D0336814F8011B9B6885
:104C9C0030469847F6E72846F8BD007C0022FFF71F
:104CAC00B7BB007C0021FFF7BBBB007C0021FFF7EA
:104CBC00BFBB007C0021FFF7C3BB007C0021FFF7CA
:104CCC00C7BB10B51421044600F0BDF9204610BD39
:104CDC0010B54FF47A73044608460021C4E9011359
:104CEC00034B236020741146FFF7C2FB204610BD16
:104CFC00E8510D00002240681146FFF745BC002228
:104D0C0040681146FFF760BC002240681146FFF76F
:104D1C006BBC40680022FFF75FBC4068002281F04A
:104D2C000101FFF749BC002340681A461946FFF7FA
:104D3C003BBC002240681146FFF716BC40680022BD
:104D4C000221FFF719BC002340681A46FFF704BC88
:104D5C00024B04225A60024A1A607047B8E70320DB
:104D6C0010520D00002340681A46FFF7F5BB40684F
:104D7C0000220221FFF700BC002240681146FFF719
:104D8C00F3BB002240681146FFF7FEBB00234068CE
:104D9C001A461946FFF700BC002340681A4619460C
:104DAC00FFF702BC40680021FFF726BC40680021D9
:104DBC00FFF72ABC4068002281F00101FFF7FCBB21
:104DCC0040680022FFF708BC002240681146FFF73C
:104DDC000BBC002240681146FFF7F6BB2DE9F043EF
:104DEC00002495B016460D460746FFF707FE2146F0
:104DFC0018220EA8009400F047F94023CDE90C349A
:104E0C0021466B460CAA3046FFF76AFA0446002886
:104E1C004CD1024601216868FFF7B6FB022180469F
:104E2C0022466868FFF7B0FB009E81462146002EA3
:104E3C003CD000293AD17368022B03D00A2B11D035
:104E4C00F669F4E7B8F1000F0AD0716906A80431CD
:104E5C0007ADFFF701FE0FCD3C1D0FC42B6823706F
:104E6C004146EDE7B9F1000F01D14946E8E7746915
:104E7C00102201A800F008F906238DF8143001ADBA
:104E8C0004F108031834186859682A4603C2083319
:104E9C00A3421546F7D101A906A807ADFFF7BCFD43
:104EAC000FCD3C1D0FC42B682370DEE70098FFF775
:104EBC000FFA384615B0BDE8F0830000024B034AE8
:104ECC001A6000225A607047C0E703204C520D0054
:104EDC00232813B502D9002002B010BDA0F10B039A
:104EEC00022B1AD8174C2178BFF35B8F11F00101FC
:104EFC000BD120460191FFF7CAF8019928B112484D
:104F0C00FFF7E8FB2046FFF7C7F80F4B1878FFF7C1
:104F1C00BFFA0028DFD10120DEE7012809D800F014
:104F2C0065F80021007CFFF79BFA80F00100C0B20D
:104F3C00D2E709380128EED8FFF774FE007CFFF7A2
:104F4C0057FAF2E7C8E70320CCE70320232838B54B
:104F5C0004460D460AD8FF2908D0FFF7B9FF28B13F
:104F6C0029462046BDE83840FFF7CAB938BD38B5E8
:104F7C0004460D46FFF7ACFFF0B104212046FFF7C5
:104F8C00B7F9042805D1A9B22046BDE83840FFF78F
:104F9C00C7B902212046FFF7ABF902280CD12046F5
:104FAC00FFF7B6F9012801D0042805D1294620467F
:104FBC00BDE83840FFF7BCB938BD000038B5002358
:104FCC00202543801423044603808560056106492F
:104FDC00284600F03AF804496060284600F035F89D
:104FEC00E060204638BD00BF80520D0030B50F4D3B
:104FFC002978BFF35B8F11F0010487B013D12846D9
:10500C00FFF745F878B101A8FFF7D8FF01AA2146B0
:10501C000748FFF75DFE2846FFF73EF8054A0649AC
:10502C00034800F00BF8024807B030BDD8E7032066
:10503C00DCE7032034E60320854C0D000B460146CB
:10504C00184600F005B8FFF720B8FFF71CB80000B1
:10505C0010B5054C13462CB10A4601460220AFF39D
:10506C00008010BD2046FCE7000000000A4491427D
:10507C0000F1FF3300D1704710B511F8014B03F864
:10508C00014F9142F9D110BD02440346934200D125
:10509C00704703F8011BF9E738B50D4B1D68AB6B76
:1050AC0004467BB91820FFF7BFFA0A4A0A4BA863DB
:1050BC00C0E90023094B83600B2383810122002369
:1050CC00C0E90423AB6B00221C615A6138BD00BFE0
:1050DC00D0E503200E33CDAB34126DE6ECDE0500CB
:1050EC00034613F8012B002AFBD1181A013870471C
:1050FC001D400D0059400D0081400D0085400D00F4
:10510C00000000000000000000000000C3460D007D
:10511C00B9460D00AF460D00A5460D0099460D0091
:10512C008D460D00B14D0D00B94D0D0081460D00A1
:10513C0079460D006F460D0065460D00E94D0D00DA
:10514C006170700025592D256D2D25645425483A24
:10515C00254D3A2553257A0061736374696D65009A
:10516C000000000000000000A5490D0095490D004D
:10517C0097490D000000000000000000854A0D005A
:10518C00ED4A0D00C34A0D007D470D00B54A0D00D8
:10519C00874A0D00974A0D00E74A0D00A74A0D00FB
:1051AC00814A0D000000000000000000894B0D003A
:1051BC00F54B0D00CD4B0D007D470D009D4B0D00AB
:1051CC00B94B0D00AB4B0D00C74B0D008B4B0D00BD
:1051DC008F4B0D000000000000000000854C0D00FE
:1051EC00CF4C0D00A74C0D00874C0D00AF4C0D00A3
:1051FC00B74C0D00BF4C0D00C74C0D00000000005B
:10520C0000000000534D0D00494D0D003F4D0D00A9
:10521C00014D0D000F480D00334D0D00B14D0D002B
:10522C00B94D0D00274D0D001F4D0D00154D0D00F6
:10523C000B4D0D00E94D0D000000000000000000BA
:10524C00714D0D007B4D0D00854D0D008F4D0D00EA
:10525C00994D0D00A54D0D00B14D0D00B94D0D0032
:10526C00C14D0D00CD4D0D00D54D0D00DF4D0D0088
:10527C00E94D0D0000000000A1420D00CD460D00CF
:10528C00F5460D0055470D001D480D002D480D002D
:10529C0055480D005D4D0D00C94E0D00000000007D
:0452AC0000000000FE
:0452B00000000000FA
:1052B40064510D00D4E5032000000000000000004C
:1052C40000000000000000000000000000000000DA
:1052D40000000000000000000000000000000000CA
:1052E40000000000000000000000000000000000BA
:1052F40000000000000000000000000000000000AA
:105304000000000000000000000000000000000099
:08531400000000000000000091
:10531C00FFFFFFFF00000102030405060708090A4E
:10532C000B0C0D0E0F101112131415161718191A49
:08533C001B1C1D1E1F20280090
:045344007856341251
:04000003D000401CCD
:00000001FF
